{
  "address": "0x7487764120F5F326fCBddDA9A6e578F0772FA27C",
  "abi": [
    {
      "inputs": [],
      "stateMutability": "nonpayable",
      "type": "constructor"
    },
    {
      "anonymous": false,
      "inputs": [
        {
          "indexed": true,
          "internalType": "address",
          "name": "from",
          "type": "address"
        },
        {
          "indexed": false,
          "internalType": "uint256",
          "name": "timestamp",
          "type": "uint256"
        },
        {
          "indexed": false,
          "internalType": "string",
          "name": "name",
          "type": "string"
        },
        {
          "indexed": false,
          "internalType": "string",
          "name": "message",
          "type": "string"
        }
      ],
      "name": "NewMemo",
      "type": "event"
    },
    {
      "inputs": [
        {
          "internalType": "string",
          "name": "_name",
          "type": "string"
        },
        {
          "internalType": "string",
          "name": "_message",
          "type": "string"
        }
      ],
      "name": "buyCoffee",
      "outputs": [],
      "stateMutability": "payable",
      "type": "function"
    },
    {
      "inputs": [],
      "name": "getMemos",
      "outputs": [
        {
          "components": [
            {
              "internalType": "address",
              "name": "from",
              "type": "address"
            },
            {
              "internalType": "uint256",
              "name": "timestamp",
              "type": "uint256"
            },
            {
              "internalType": "string",
              "name": "name",
              "type": "string"
            },
            {
              "internalType": "string",
              "name": "message",
              "type": "string"
            }
          ],
          "internalType": "struct BuyMeACoffee.Memo[]",
          "name": "",
          "type": "tuple[]"
        }
      ],
      "stateMutability": "view",
      "type": "function"
    },
    {
      "inputs": [],
      "name": "getOwner",
      "outputs": [
        {
          "internalType": "address",
          "name": "",
          "type": "address"
        }
      ],
      "stateMutability": "view",
      "type": "function"
    },
    {
      "inputs": [],
      "name": "withdrawTips",
      "outputs": [],
      "stateMutability": "nonpayable",
      "type": "function"
    }
  ],
  "transactionHash": "0x16e121ccb5635c8299dacaffbf8e39de706262456ba0b0c62bb17eb973a49323",
  "args": [],
  "numDeployments": 2,
  "solcInputHash": "a24fd34cccc6c4823cbf23c9840a5ecc",
  "bytecode": "0x608060405234801561001057600080fd5b5033600160006101000a81548173ffffffffffffffffffffffffffffffffffffffff021916908373ffffffffffffffffffffffffffffffffffffffff160217905550610e19806100616000396000f3fe60806040526004361061003f5760003560e01c8063204206e1146100445780633aaa74b214610060578063865c517214610077578063893d20e8146100a2575b600080fd5b61005e600480360381019061005991906106a0565b6100cd565b005b34801561006c57600080fd5b50610075610247565b005b34801561008357600080fd5b5061008c610339565b604051610099919061091d565b60405180910390f35b3480156100ae57600080fd5b506100b761051c565b6040516100c4919061094e565b60405180910390f35b60003411610110576040517f08c379a0000000000000000000000000000000000000000000000000000000008152600401610107906109c6565b60405180910390fd5b600060405180608001604052803373ffffffffffffffffffffffffffffffffffffffff16815260200142815260200184815260200183815250908060018154018082558091505060019003906000526020600020906004020160009091909190915060008201518160000160006101000a81548173ffffffffffffffffffffffffffffffffffffffff021916908373ffffffffffffffffffffffffffffffffffffffff1602179055506020820151816001015560408201518160020190816101d89190610bf2565b5060608201518160030190816101ee9190610bf2565b5050503373ffffffffffffffffffffffffffffffffffffffff167fc56140e05f516509ae28110e0f72e17558a7561630dad2647c3ae87d986e365c42848460405161023b93929190610d0c565b60405180910390a25050565b600160009054906101000a900473ffffffffffffffffffffffffffffffffffffffff1673ffffffffffffffffffffffffffffffffffffffff163373ffffffffffffffffffffffffffffffffffffffff16146102d7576040517f08c379a00000000000000000000000000000000000000000000000000000000081526004016102ce90610dc3565b60405180910390fd5b600160009054906101000a900473ffffffffffffffffffffffffffffffffffffffff1673ffffffffffffffffffffffffffffffffffffffff166108fc479081150290604051600060405180830381858888f1935050505061033757600080fd5b565b60606000805480602002602001604051908101604052809291908181526020016000905b8282101561051357838290600052602060002090600402016040518060800160405290816000820160009054906101000a900473ffffffffffffffffffffffffffffffffffffffff1673ffffffffffffffffffffffffffffffffffffffff1673ffffffffffffffffffffffffffffffffffffffff168152602001600182015481526020016002820180546103f090610a15565b80601f016020809104026020016040519081016040528092919081815260200182805461041c90610a15565b80156104695780601f1061043e57610100808354040283529160200191610469565b820191906000526020600020905b81548152906001019060200180831161044c57829003601f168201915b5050505050815260200160038201805461048290610a15565b80601f01602080910402602001604051908101604052809291908181526020018280546104ae90610a15565b80156104fb5780601f106104d0576101008083540402835291602001916104fb565b820191906000526020600020905b8154815290600101906020018083116104de57829003601f168201915b5050505050815250508152602001906001019061035d565b50505050905090565b6000600160009054906101000a900473ffffffffffffffffffffffffffffffffffffffff16905090565b6000604051905090565b600080fd5b600080fd5b600080fd5b600080fd5b6000601f19601f8301169050919050565b7f4e487b7100000000000000000000000000000000000000000000000000000000600052604160045260246000fd5b6105ad82610564565b810181811067ffffffffffffffff821117156105cc576105cb610575565b5b80604052505050565b60006105df610546565b90506105eb82826105a4565b919050565b600067ffffffffffffffff82111561060b5761060a610575565b5b61061482610564565b9050602081019050919050565b82818337600083830152505050565b600061064361063e846105f0565b6105d5565b90508281526020810184848401111561065f5761065e61055f565b5b61066a848285610621565b509392505050565b600082601f8301126106875761068661055a565b5b8135610697848260208601610630565b91505092915050565b600080604083850312156106b7576106b6610550565b5b600083013567ffffffffffffffff8111156106d5576106d4610555565b5b6106e185828601610672565b925050602083013567ffffffffffffffff81111561070257610701610555565b5b61070e85828601610672565b9150509250929050565b600081519050919050565b600082825260208201905092915050565b6000819050602082019050919050565b600073ffffffffffffffffffffffffffffffffffffffff82169050919050565b600061076f82610744565b9050919050565b61077f81610764565b82525050565b6000819050919050565b61079881610785565b82525050565b600081519050919050565b600082825260208201905092915050565b60005b838110156107d85780820151818401526020810190506107bd565b60008484015250505050565b60006107ef8261079e565b6107f981856107a9565b93506108098185602086016107ba565b61081281610564565b840191505092915050565b60006080830160008301516108356000860182610776565b506020830151610848602086018261078f565b506040830151848203604086015261086082826107e4565b9150506060830151848203606086015261087a82826107e4565b9150508091505092915050565b6000610893838361081d565b905092915050565b6000602082019050919050565b60006108b382610718565b6108bd8185610723565b9350836020820285016108cf85610734565b8060005b8581101561090b57848403895281516108ec8582610887565b94506108f78361089b565b925060208a019950506001810190506108d3565b50829750879550505050505092915050565b6000602082019050818103600083015261093781846108a8565b905092915050565b61094881610764565b82525050565b6000602082019050610963600083018461093f565b92915050565b600082825260208201905092915050565b7f63616e27742062757920636f6666656520776974682030206574680000000000600082015250565b60006109b0601b83610969565b91506109bb8261097a565b602082019050919050565b600060208201905081810360008301526109df816109a3565b9050919050565b7f4e487b7100000000000000000000000000000000000000000000000000000000600052602260045260246000fd5b60006002820490506001821680610a2d57607f821691505b602082108103610a4057610a3f6109e6565b5b50919050565b60008190508160005260206000209050919050565b60006020601f8301049050919050565b600082821b905092915050565b600060088302610aa87fffffffffffffffffffffffffffffffffffffffffffffffffffffffffffffffff82610a6b565b610ab28683610a6b565b95508019841693508086168417925050509392505050565b6000819050919050565b6000610aef610aea610ae584610785565b610aca565b610785565b9050919050565b6000819050919050565b610b0983610ad4565b610b1d610b1582610af6565b848454610a78565b825550505050565b600090565b610b32610b25565b610b3d818484610b00565b505050565b5b81811015610b6157610b56600082610b2a565b600181019050610b43565b5050565b601f821115610ba657610b7781610a46565b610b8084610a5b565b81016020851015610b8f578190505b610ba3610b9b85610a5b565b830182610b42565b50505b505050565b600082821c905092915050565b6000610bc960001984600802610bab565b1980831691505092915050565b6000610be28383610bb8565b9150826002028217905092915050565b610bfb8261079e565b67ffffffffffffffff811115610c1457610c13610575565b5b610c1e8254610a15565b610c29828285610b65565b600060209050601f831160018114610c5c5760008415610c4a578287015190505b610c548582610bd6565b865550610cbc565b601f198416610c6a86610a46565b60005b82811015610c9257848901518255600182019150602085019450602081019050610c6d565b86831015610caf5784890151610cab601f891682610bb8565b8355505b6001600288020188555050505b505050505050565b610ccd81610785565b82525050565b6000610cde8261079e565b610ce88185610969565b9350610cf88185602086016107ba565b610d0181610564565b840191505092915050565b6000606082019050610d216000830186610cc4565b8181036020830152610d338185610cd3565b90508181036040830152610d478184610cd3565b9050949350505050565b7f796f7520617265206e6f7420746865206f776e65722c20736f20796f7520636160008201527f6e27742077697468647261770000000000000000000000000000000000000000602082015250565b6000610dad602c83610969565b9150610db882610d51565b604082019050919050565b60006020820190508181036000830152610ddc81610da0565b905091905056fea264697066735822122075b625ba933c469416ac7a8ae5993343f46450d3e4cb198fb293bbc79c8f5daa64736f6c63430008110033",
  "devdoc": {
    "kind": "dev",
    "methods": {
      "buyCoffee(string,string)": {
        "details": "buy a coffee from contract owner",
        "params": {
          "_message": "a nice message from the coffee buyer",
          "_name": "name of the coffee buyer"
        }
      },
      "getMemos()": {
        "details": "retrieve all the memos received and stored on the blockchain."
      },
      "withdrawTips()": {
        "details": "send the entrie balance stored in this contract to the owner"
      }
    },
    "version": 1
  },
  "userdoc": {
    "kind": "user",
    "methods": {},
    "version": 1
  },
  "storageLayout": {
    "storage": [
      {
        "astId": 24,
        "contract": "contracts/BuyMeACoffee.sol:BuyMeACoffee",
        "label": "memos",
        "offset": 0,
        "slot": "0",
        "type": "t_array(t_struct(Memo)20_storage)dyn_storage"
      },
      {
        "astId": 26,
        "contract": "contracts/BuyMeACoffee.sol:BuyMeACoffee",
        "label": "owner",
        "offset": 0,
        "slot": "1",
        "type": "t_address_payable"
      }
    ],
    "types": {
      "t_address": {
        "encoding": "inplace",
        "label": "address",
        "numberOfBytes": "20"
      },
      "t_address_payable": {
        "encoding": "inplace",
        "label": "address payable",
        "numberOfBytes": "20"
      },
      "t_array(t_struct(Memo)20_storage)dyn_storage": {
        "base": "t_struct(Memo)20_storage",
        "encoding": "dynamic_array",
        "label": "struct BuyMeACoffee.Memo[]",
        "numberOfBytes": "32"
      },
      "t_string_storage": {
        "encoding": "bytes",
        "label": "string",
        "numberOfBytes": "32"
      },
      "t_struct(Memo)20_storage": {
        "encoding": "inplace",
        "label": "struct BuyMeACoffee.Memo",
        "members": [
          {
            "astId": 13,
            "contract": "contracts/BuyMeACoffee.sol:BuyMeACoffee",
            "label": "from",
            "offset": 0,
            "slot": "0",
            "type": "t_address"
          },
          {
            "astId": 15,
            "contract": "contracts/BuyMeACoffee.sol:BuyMeACoffee",
            "label": "timestamp",
            "offset": 0,
            "slot": "1",
            "type": "t_uint256"
          },
          {
            "astId": 17,
            "contract": "contracts/BuyMeACoffee.sol:BuyMeACoffee",
            "label": "name",
            "offset": 0,
            "slot": "2",
            "type": "t_string_storage"
          },
          {
            "astId": 19,
            "contract": "contracts/BuyMeACoffee.sol:BuyMeACoffee",
            "label": "message",
            "offset": 0,
            "slot": "3",
            "type": "t_string_storage"
          }
        ],
        "numberOfBytes": "128"
      },
      "t_uint256": {
        "encoding": "inplace",
        "label": "uint256",
        "numberOfBytes": "32"
      }
    }
  }
}